:020000040800F2
:1000000000000220ED510008395200083952000862
:100010003952000839520008395200080000000027
:10002000000000000000000000000000395200083D
:100030003952000800000000395200083952000807
:100040003952000839520008395200083952000864
:100050003952000839520008395200083952000854
:100060003952000839520008395200083952000844
:100070003952000839520008395200083952000834
:100080003952000839520008395200084D3A000828
:10009000513A000839520008413A00083952000824
:1000A0003952000839520008395200083952000804
:1000B00039520008395200083952000839520008F4
:1000C00039520008395200083952000839520008E4
:1000D00039520008395200083952000839520008D4
:1000E00039520008395200083952000839520008C4
:1000F00039520008395200083952000839520008B4
:1001000039520008395200083952000839520008A3
:100110003952000839520008395200083952000893
:100120003952000839520008395200083952000883
:10013000395200080000000000000000613A000889
:10014000653A000839520008553A0008395200084B
:100150003952000839520008395200083952000853
:100160003952000839520008395200083952000843
:1001700039520008395200083952000800000000C6
:1001800000000000395200080000000000000000DC
:100190003952000800000000000000003952000839
:1001A00000000000000000000000000039520008BC
:1001B00039520008395200083952000839520008F3
:1001C0003952000810B5054C237833B9044B13B1EC
:1001D0000448AFF300800123237010BD48100020B5
:1001E000000000000492010808B5034B1BB103494D
:1001F0000348AFF3008008BD000000004C10002051
:1002000004920108A3F5803A704700BF174B002BFA
:1002100008BF134B9D46FFF7F5FF00218B460F46A5
:100220001348144A121A09F0E1FB0E4B002B00D0C0
:1002300098470D4B002B00D0984700200021040068
:100240000D000D48002802D00C4804F018F809F001
:1002500085F92000290004F0A1FA04F00DF800BF90
:1002600000000800000000008D4700080000022088
:1002700048100020D03900207F4200080000000014
:1002800010B5094B036003F1200280330446C0F827
:10029000BC20C0F8C030BC3008F048FA204607F057
:1002A00023FD204610BD00BF68850108A0F1BC00F9
:1002B000E6E7A0F1C000E3E708B5164D1649174878
:1002C000174C08F057FA1749144808F053FA2A4611
:1002D0001549124808F06BFA1449104808F04AFA18
:1002E000224611490D4808F062FA0C4808F030FA2D
:1002F00023782A780E49094808F03CFA287800F05B
:10030000E1F8207801F00AF800F02EF901F05CF82D
:10031000FAE700BFCC0100206C6001082411002026
:1003200064100020B2600108C9600108CC600108B7
:10033000E960010810B50446FFF7A2FF204604F06B
:1003400006F9204610BDA0F1BC00F3E7A0F1C00003
:10035000F0E7000013B5094C4FF416530093032245
:1003600000230221204607F055F8054A054920469A
:1003700002B0BDE8104003F07DBF00BF6810002050
:10038000C8010020810200080FB407B5064B04AA7B
:100390001B6852F8041BD86801920BF0CFFD03B024
:1003A0005DF804EB04B070477406002008B5074BF5
:1003B0001A78074B1B789A4205D106481146FFF779
:1003C000E3FF012008BD0020FCE700BFCD010020B5
:1003D000DE12002002610108024B1870062000F0B6
:1003E00071BA00BF4211002038B5084B054618709D
:1003F000FFF7DCFF0128044605D105482946FFF731
:10040000C3FF204638BD0024FBE700BFDE120020FA
:100410004161010870B50D4E0D4D3378834228BF00
:1004200003461A460B4829461C4609F0C9F932789A
:10043000094B121BD2B21C7032702AB129192846FE
:1004400009F0BEF9012070BD1046FCE74411002000
:10045000DF16002045110020DA12002038B50546CD
:1004600010460C46FFF7C0FF012804D1BDE8384014
:10047000072000F043BA072000F040FA0028F5D129
:10048000192C2246294609D80A4809F099F90A4B3D
:100490001C70BDE83840042000F014BA074809F089
:1004A0008FF9074B1A201C70FFF7B4FF072000F0EC
:1004B00009FAEEE745110020DA120020DF160020CD
:1004C0004411002010B50A4B0A4C00221A7020700B
:1004D00000F00EFAFFF76AFF207800F07BFA06487A
:1004E00001F0C8F9BDE81040044801F0C9B900BFE7
:1004F000DE120020CD0100205D040008D9030008B1
:100500002DE9FF41164D1F4695F80080154B144606
:1005100098440E4600F0D4F922460146404609F0C0
:100520004FF92A78023A1444E4B2012F2C7003D018
:100530009DF82830012B10D100F08CFA039000F0C8
:1005400083FA039B009022460648314601F04EF99B
:100550000020287004B0BDE8F0810120FAE700BF58
:1005600043110020DF1200202DE9FF47AD4BAE4CB8
:100570001A782578AA4218BF1D70012D00F0BC80A2
:10058000022D00F0DB80002D40F04981062000F0B4
:10059000B5F978B1A54B187800F038FAB0FA80F0C8
:1005A000400901F048F92570062004B0BDE8F04785
:1005B00000F092B9032000F0A1F9002849D000F022
:1005C00033FA074600F036FA054600F037FA80465F
:1005D00000F046FA0646284600F04FF95FFA80F927
:1005E0004EBBDFF850A2284600F068F99AF80030B8
:1005F000834220D0284600F061F99AF80020014695
:100600008B48FFF7C1FE284600F058F9894A137855
:10061000984208BF431C284608BF137000F04EF9EB
:100620000146854800F033F983483A46032100F03B
:10063000E3F901230AE0CDF80090334642463946FB
:100640002846FFF75DFF002EDDD000232370032036
:10065000ABE7042000F052F938B3764D774B2A7897
:100660001B7803920720029300F048F9B0FA80F05B
:100670004009DDE90232724900907248724E00F082
:100680000DF9724B3278187001466E4800F0B4F9DB
:100690003378FF2B1EBF2B7801332B706C4B00225D
:1006A0001A700123237004207FE7072000F026F949
:1006B00050B1042000F006F91A20FFF7ABFE002825
:1006C00040F0AD80072070E700F018F908B1002075
:1006D0006BE7012000F012F908B1012065E700F096
:1006E0000DF908B1022060E7052000F007F90028A5
:1006F00000F09580052058E7284600F0FFF80646F0
:1007000050B100F0CDF9012803D0052000F0F6F833
:1007100000B102202070E0E700F0F0F800287ED061
:10072000494B1B78FF2B04D12846267001F080F836
:10073000CDE70223237000F0F3F9C8E7284600F064
:10074000DDF80546D0B100F075F905463D4800F0EA
:10075000B5F80646284600F0B1F8864207D100F009
:1007600093F900230120237001F062F8BAE73548BD
:1007700000F0A4F8284600F0A1F8B3E7052000F047
:10078000BDF8E0B1324E3378092B0BD92D4800F07B
:1007900095F801462F48FFF7F7FD2846257001F030
:1007A00047F8A7E7284B27481A78284B197800F014
:1007B00023F9337801333370012323709AE7032040
:1007C00000F09CF800B300F02FF9074600F032F972
:1007D000054600F033F9814600F042F90646284606
:1007E00000F04BF85FFA80F826B1CDF80080334670
:1007F0004A4624E7DFF83CA0284600F05FF89AF864
:1008000000308342F1D0F5E600F078F800287FF45C
:100810005EAF012000F072F800287FF45EAF04B0F4
:10082000BDE8F08741110020401100204211002056
:1008300066610108DB1200200D120020DA12002090
:100840004511002012120020DE120020DC120020D0
:10085000DD120020B2610108024B1A78024B1A70B7
:10086000704700BF4011002041110020007801387E
:1008700001288CBF0020012070470078431E584299
:10088000584170470078B0FA80F040097047002363
:1008900003700123417083700320704710B51C461C
:1008A0009DF808304270012B18BF022303702246C6
:1008B000023008F085FFA01CC0B210BD4078704720
:1008C00002307047034A012303FA00F0136818430B
:1008D00010607047E01A0020044A012303FA00F078
:1008E000136823EA00031360704700BFE01A00207A
:1008F000014B00221A607047E01A0020012303FA1E
:1009000000F0024B1B681840704700BFE01A00203F
:10091000054B1B785A1E012A02D80020FFF7D2BFD0
:100920000BB90120FAE77047E51A0020F8B5074631
:100930000C4615461E4609F0C9F807EE900AFAEE75
:10094000E07AF5EEC07AF1EE10FA21DD2A46214672
:10095000104808F035FF104B1F70104B1D7002F04F
:100960008FFF0F4B187002F085FF0E4B18800E4B57
:1009700020461E70FFF77AFF20B10320BDE8F84043
:10098000FFF7A0BF2046FFF77DFF08B10220F5E783
:10099000F8BD00BFE81A0020E71A00201C1B002049
:1009A000E61A00201A1B0020E41A00200FB407B535
:1009B000064B07491B6805AAD86801920BF0BEFADE
:1009C00003B05DF804EB04B0704700BF740600206C
:1009D000F061010810B50446002007F08FFD09F012
:1009E0006DF82046024A0349BDE8104002F0E4BE1B
:1009F0002D0900081109000810B5044602F0FEFE9A
:100A0000014B22781A7010BDE51A002010B502F0D3
:100A10003DFF044618B101460248FFF7C7FF2046D4
:100A200010BD00BFF0610108014B1878704700BF8E
:100A3000E71A002000487047E81A0020014B187898
:100A4000704700BF1C1B0020014BB3F9000070472A
:100A50001A1B0020014B93F900007047E61A002092
:100A6000014B1878704700BFE41A0020036818474C
:100A70000B68036070477047024B002205201A7014
:100A8000FFF720BF1D1B002008B5034806F00FFC30
:100A9000024B00221A7008BD201B00201D1B0020E5
:100AA000014B1878704700BF1D1B0020C36810B5AC
:100AB00004460BB19B689847204610BD38B50546E3
:100AC000064B45F8283B044606F0F1FB2846FFF7A5
:100AD000EDFF204606F0B6FB204638BDBC84010879
:100AE00010B50446FFF7EAFF204603F030FD20462C
:100AF00010BD000010B5034B03600446FFF7DEFF96
:100B0000204610BD3085010838B5CB6804460D4637
:100B10000BB15B689847EB68E360204638BD000086
:100B200030B589B008F0D2FF102204460021684693
:100B300008F05CFF204B00936946204B039304A808
:100B4000FFF7E2FF032094FBF0F000EB4000241AD3
:100B50000234E4B207EE904A9FED197AF8EE677A14
:100B600067EE877A17EE900A14F074FA05460C4681
:100B700007F008F9134B5A6B22B993F838300BB1D0
:100B800006F0AAFE1048FFF791FF04A90E48FFF7F0
:100B9000BBFF2A4623460B4806F071FB07F008F915
:100BA00004A8FFF783FF6846FFF780FF074B012289
:100BB0001A7009B030BD00BF790A0008246201082C
:100BC00000247449201B0020481B00201D1B00200E
:100BD00010B50446FFF78EFF204603F0B8FC204610
:100BE00010BD000010B50C4C204606F003FB20465B
:100BF0000A4B40F8283B1022002108F0F7FE0123A1
:100C000084F83830064B23602046064A0649BDE882
:100C1000104003F02FBB00BF201B0020BC84010844
:100C200030850108C8010020F50A000838B5414D9B
:100C3000414807F08DFD2B78012BC4B210D100F094
:100C40001BFF01280CD1204600F096FF00F0CCFFDE
:100C500000286DD000F0CEFFBDE8384001F024BA86
:100C6000364B1B78002B3CD104F0DF04532C1FD1F2
:100C7000334A1378002B5BD101211170314A32487D
:100C80001370324A1370324A1370324A4FF6387179
:100C90001180194600EBC30201330A2B9171F9D17F
:100CA0002D49254807F066FDBDE8384000F0FABD43
:100CB000592C0BD1264B1B78002B39D0274B012206
:100CC0001A70BDE83840042000F070BD4E2C2FD1C2
:100CD0001C4B1B7863B322491748BDE8384007F026
:100CE00049BD012B10D12A7882B904F0DF02592ABC
:100CF00002D11C4A1370E4E74E2A07D11A490E4864
:100D000007F038FD1949E7E7022B11D1042000F064
:100D100063FD68B9164917480A78531CDBB20A2CE0
:100D20000B7001D00D2C02D100238354C9E78454E9
:100D300038BD00BF611B00208C200020601B0020FC
:100D4000C21F00206C1F0020721F0020CA1F00203D
:100D5000631B0020CE01002030620108CC1F002060
:100D60004D620108CD1F002081620108BF620108A9
:100D7000AE240020661B00200FB407B5064B0749C0
:100D80001B6805AAD86801920BF0D8F803B05DF88B
:100D900004EB04B0704700BF74060020D66201085F
:100DA000044A1378042B9FBF0349C85401331370BE
:100DB000704700BFC91F00206D1F0020044A137830
:100DC000042B9FBF0349C85401331370704700BF01
:100DD000CB1F0020C31F002007B510238DF804305F
:100DE0000A4B1B788DF80530094B1B788DF80630BF
:100DF00000238DF80730074B04211B68FF220DEB01
:100E00000100984703B05DF804FB00BFAF24002049
:100E1000611B0020B4240020054A00231370054AFA
:100E20001370054A1370054A1370054A1370704712
:100E3000CC1F0020641B0020C81F0020CD1F0020F5
:100E4000651B002013B5FFF7E7FF11238DF8043071
:100E50000B4B8DF806001B788DF8053000238DF8BC
:100E60000730084B04211B68044602460DEB0100C5
:100E7000984705490548224607F07CFC02B010BDA2
:100E8000AF240020B42400205F6301088C200020E0
:100E900007B512238DF804300A4B8DF806001B7835
:100EA0008DF80530002914BF012302238DF8073087
:100EB000054B042102461B680DEB0100984703B067
:100EC0005DF804FBAF240020B424002013B55023A8
:100ED0008DF804300B4B8DF806001B788DF805302B
:100EE00000238DF80730084B04211B680446024696
:100EF0000DEB0100984705490548224607F03AFCEA
:100F000002B010BDAF240020B42400208B63010880
:100F10008C20002007B551238DF804300A4B8DF842
:100F200006001B788DF80530002914BF0123022329
:100F30008DF80730054B042102461B680DEB0100BC
:100F4000984703B05DF804FBAF240020B4240020D0
:100F50002DE9F04E164FDFF85CB0DFF85CA0DFF84B
:100F60005C90ADF5806D06460C4600259BF8003080
:100F7000AB4218DD40238DF8003022469AF800304D
:100F80008DF8013031460DF103008DF8024008F074
:100F900017FCE31CD9B217F8012BD9F800306846CA
:100FA00098470135E2E70DF5806DBDE8F08E00BF92
:100FB000C31F0020CB1F0020AF240020B42400203A
:100FC000F0B5114E114C33780025AB420CDD14F80E
:100FD0003570874206D104EBC5031A71012259808E
:100FE0009A71F0BD0135F0E7092BFAD8074C04F8E7
:100FF000330004EBC30002710122134441804271AB
:1010000082713370EDE700BFCA1F0020721F0020FD
:10101000F8B5234A234D244C92F800C0234A4FF6DA
:1010200038732B80002323701E466FF0C7011846CB
:1010300084450BDD977937B1B2F902708F42C2BF98
:1010400013783946012601300832F1E70EB12980C4
:101050002370174B01221A70164B00221A70237846
:10106000A3B11549154807F085FB227814491348A8
:1010700007F080FB1349B5F90020104807F07AFB10
:1010800011490E48BDE8F84007F074BB0F490B4802
:1010900007F070FB0E49094807F06CFB0D49F0E7BB
:1010A000CA1F0020CE010020631B0020721F0020F9
:1010B0006C1F0020C21F0020B76301088C20002095
:1010C000CD630108E0630108F963010819640108B0
:1010D000316401085464010810B4044608461146FE
:1010E0001A46064B1B7833B1A378012B03D15DF868
:1010F000044BFFF765BF5DF8044B7047C21F00202B
:1011000038B5154B1D78012D0C4624D1134B1B7897
:10111000042B0A4615D81249124807F02BFB294622
:101120002046FFF7B5FE2046FFF73AFE00F0A4FC8C
:10113000012810D1002220461146BDE8384000F0B9
:10114000C7BC0949074807F015FB20460221BDE846
:101150003840FFF79DBE38BD611B0020C91F00202D
:10116000886401088C200020BE64010838B5124B49
:10117000C5781B780C4693B9012D10D10A460F484B
:101180000F4907F0F7FA0F4B0F491C700F4B0B4834
:101190001D700F4B1D70BDE8384007F0EBBA022DF3
:1011A00009D122460B49054807F0E4FAFFF734FE5F
:1011B000074B00221A7038BD611B00208C200020D4
:1011C00004650108C81F00202D650108641B00206C
:1011D000601B00206565010838B5114B1D78012D95
:1011E0000C461BD10F4B1B78042B0A460CD80E491A
:1011F0000E4807F0BFFA20462946FFF78BFE20462F
:10120000BDE83840FFF7DABD0949084807F0B2FAEF
:1012100020460221BDE83840FFF77CBE38BD00BF44
:10122000611B0020CB1F00209B6501088C20002043
:10123000D165010810B5184BC4781B780A46C3B9AC
:10124000012C16D11549164807F094FA154B16498A
:101250001C70164B124802221A7007F08BFA1449C0
:101260000F4807F087FABDE8104012490C4807F014
:1012700081BA022C0ED11049094807F07BFA0F49B8
:10128000074807F077FA0E49054807F073FA0D4B47
:1012900000221A7010BD00BF611B002017660108F4
:1012A0008C200020651B002040660108601B002088
:1012B00062660108A6660108B6660108EE660108C6
:1012C000BF620108CD1F002007B5C21C01928278C1
:1012D00000920B460B4A0C490C48632B88BF0A4608
:1012E0000B4907F047FA0B4B1B78022B06D10A4932
:1012F000064803B05DF804EB07F03CBA03B05DF8B4
:1013000004FB00BF2A670108246701088C20002025
:101310002F670108601B0020A66601081FB51F4B40
:101320006328187004461E4B2CD901221A701D49DF
:1013300002461D4807F01EFA0521204600F016FB64
:1013400000F058FB19491848052207F013FA18490C
:10135000154807F00FFA00F0A5FA102200216846A0
:1013600008F044FB134B00931348144B03930022E3
:10137000694606F07FFC039B13B19B68684698475B
:1013800004B010BD00221A700D490246064807F04D
:10139000F1F90C49044807F0EDF9DEE7AF2400202D
:1013A000611B00204E6701088C2000206B6701083C
:1013B000856701082D0C0008D01F00202462010859
:1013C000A6670108C26701082DE9FF47A04B1878FE
:1013D000A04B1A78824218BF187001286FD00228DB
:1013E00000F0FE80002840F0A48100F055FA38B9E2
:1013F000994B1B78012B24D1FFF7EEFC00F052FA39
:10140000022000F0E9F9002845D000F017FA044660
:1014100000F018FA00F01CFA039000F01FFA029096
:1014200000F022FA25780399122D034622D011D814
:10143000102D029A16D0112D0ED12046FFF760FE16
:101440000AE0002BDCD1854B1B78002BD8D0FFF7AE
:10145000DFFDD5E7302D11D0022004B0BDE8F04704
:1014600000F0AEB97C4800780028F5D12046FFF79F
:1014700033FEF1E72046FFF779FEEDE7764B1B7868
:10148000002BE9D1A378764803340A4600947549C5
:1014900007F070F9E0E7042000F09EF9002800F062
:1014A00048816D4B1D7845B96F4C23782BB16F4B3C
:1014B000187810B1FFF7C6FC25700420CDE7022094
:1014C00000F08AF90446002834D000F0B7F9044649
:1014D00000F0B8F9054600F0BBF92278302A014641
:1014E0001BD011D8112AA8D0202AB5D16B1E604874
:1014F000621CFFF741FC584B1B78002BACD15D49B7
:10150000574807F037F9A7E7502A00F09580512A8D
:10151000A2D12046FFF78EFE9EE74F4B1B78002B93
:101520009AD1A3784F490334024600944C4807F0FF
:1015300021F9E4E7042000F04FF9002800F0F980D9
:10154000454E377847B94C4D2B782BB14B4B18781B
:10155000FFF7BCFC2F70B0E7494D2A78002AACD0C9
:10156000484F49493846202300F8013B08F028F944
:101570003378D3B9454B1B7843B12978444B3F4A64
:101580001B6812780131C9B23846984700213E489D
:10159000297040F2064208F029FA3378002B8CD1EA
:1015A00034492F4807F0E6F887E7012BEED1DFF842
:1015B000E89099F80030002BE8D0DFF8E080DFF801
:1015C000D0A099F80030A342E0DD2978DAF80030A5
:1015D00018F8012B0131C9B2384698470134F0E7B9
:1015E00000F0FAF8002869D000F028F9044600F06D
:1015F00029F9054600F02CF92278302A01464FD00F
:1016000010D8112A20D0202A7FF426AF6B1E18484C
:10161000621CFFF7B1FB104B1B78002B7FF41CAF53
:101620001C496DE7402A0BD0502A7FF415AF0A4BB6
:101630001B78012B7FF410AF2046FFF7CDFD0BE7A1
:101640002046FFF741FE07E7034B1B78012BF3E62B
:10165000601B0020621B0020611B0020C21F0020B5
:101660008C200020F2670108CC1F0020631B0020A3
:10167000D6620108BF620108CD1F0020C81F0020EC
:10168000AE240020A8200020661B0020641B002040
:10169000B4240020A6660108C91F00206D1F002089
:1016A000254B1B78002B7FF4D7AEA3782349033456
:1016B00002460094224807F05DF8B1E7042000F0EC
:1016C0008BF8002835D01F4D2A78002A3FF4F5AE5C
:1016D000194B1B7813BB1C4B1B78BBB11B4C1C4913
:1016E000A270402323701B4B1B786370E01C08F032
:1016F00067F82978184B194A1B6812780331C9B268
:101700002046984716490E4807F034F8002140F269
:1017100006420F48297008F069F9CEE6012BF5D191
:10172000104B1B78002BF1D009481146FFF710FC35
:10173000ECE704B0BDE8F087611B0020F267010808
:101740008C200020AE240020651B0020A820002053
:10175000661B0020AF240020B4240020C81F0020F6
:10176000A6660108CB1F002013B50B4B0B4C1A7853
:101770000B4B1A704FF416530093032200230221DF
:10178000204605F047FE074A0749204602B0BDE85B
:10179000104002F06FBD00BF601B0020D01F002072
:1017A000621B0020C801002081020008034A0123B7
:1017B00003FA00F01368184310607047B02400204B
:1017C000044901220B6802FA00F023EA00030B60CF
:1017D000704700BFB0240020012303FA00F0024B41
:1017E0001B681840704700BFB0240020F8B50C46B5
:1017F00001460A48BDF918701D46164607F0E0FF7D
:10180000074B1E70074B1D70074B1F80074B1C704A
:10181000BDE8F8400220FFF7C9BF00BFBC2400208C
:10182000C0280020BC280020BE280020C12800209D
:101830000520FFF7BBBF0620FFF7B8BF0048704781
:10184000BC240020014B1878704700BFC02800203E
:10185000014B1878704700BFC1280020014BB3F935
:1018600000007047BE280020014B93F9000070472C
:10187000BC280020014B1860704700BFB424002032
:10188000014B1860704700BFB8240020014B0022B4
:101890001A707047C2280020014B1878704700BFAB
:1018A000C228002000B589B010220021684608F047
:1018B0009DF8164B00936946154B039304A8FFF758
:1018C00023F906F05FFA134B5A6B22B993F83830BC
:1018D0000BB106F001F81048FFF7E8F804A90E482C
:1018E000FFF712F90D4A0B48002305F0C8FC06F07B
:1018F0005FFA04A8FFF7DAF86846FFF7D7F8084B55
:1019000001221A7009B05DF804FB00BF8D180008B1
:1019100024620108C8280020F028002040420F005F
:10192000C228002010B50C4C204605F063FC204670
:101930000A4B40F8283B1022002108F057F80123F9
:1019400084F83830064B23602046064A0649BDE835
:10195000104002F08FBC00BFC8280020BC840108E2
:1019600030850108C8010020F50A000830B4194D7F
:1019700001230024AB71EB71174B28706970AC70B8
:10198000EC702C716C7122460134142C5A759A75C6
:1019900003F11803F8D10023104A1C4601330A2B27
:1019A0005475947502F11802F8D100220C4C1346BC
:1019B0000132322A6375A37504F11804F8D1094A7B
:1019C0001370094A137030BC0B4602460749084899
:1019D00006F0D0BEF8300020642A00200C29002038
:1019E000482C0020602A00200829002017680108E0
:1019F0002411002010B5154C154B16490122204624
:101A00001A7006F0B7FE1449204606F0B3FE1349DB
:101A1000204606F0AFFE1249204606F0ABFE114903
:101A2000204606F0A7FE1049204606F0A3FE0F4907
:101A3000204606F09FFE0E49204606F09BFE2046FB
:101A40000C49BDE8104006F095BE00BF24110020EF
:101A5000442C00205168010892680108AD68010813
:101A6000DB680108FD6801081D6901084369010878
:101A70006169010881690108014B1878704700BF4E
:101A8000442C002010B5104A00211346547D34B177
:101A90001478844203D1182000FB013010BD0131BD
:101AA000142902F11802F1D1084A00211346547D8D
:101AB00014B114788442EED001310A2902F11802DF
:101AC000F5D10020EAE700BF642A00200C2900209D
:101AD0002DE9F743064689469046FFF7D3FF38B114
:101AE0001E4932461E4803B0BDE8F04306F042BE30
:101AF0001C4B04461A465F7D47BB1820444315190A
:101B0000012316556B70184CA5F8029085F80480D7
:101B1000384606F0F3FC4FF48073AB82A3782F6154
:101B20000133C5E90207A370AF754B4632460F4932
:101B3000CDF800800A4806F01DFEA2780C4908483E
:101B4000142303B0BDE8F04306F014BE0134142C96
:101B500003F11803CFD107493246C3E7A069010852
:101B600024110020642A0020F8300020C0690108F8
:101B7000EF690108076A0108144B1B78012B23D178
:101B8000134A0A28137801D00D2807D1E3B1114A6E
:101B90000021D154104B01221A707047082801D03F
:101BA0007F2806D183B1013B0C490D48137006F024
:101BB000E1BD622B08D8591C1170064A0949D0545E
:101BC0000246074806F0D6BD704700BF442C0020EF
:101BD000602A0020FC290020082900203B6A010817
:101BE000241100203F6A0108014B1878704700BF9C
:101BF00008290020034A044800231370034A137085
:101C0000704700BF08290020FC290020602A00201E
:101C100010B59AB030238DF80030164B1B788DF834
:101C20000130044608F0CCFAC0B263288ABF6323AF
:101C30008DF802008DF802309DF8022021460DF14A
:101C4000030008F06BFB9DF8021001F168036B4480
:101C5000002203F8652C084B04311B686846FF22FC
:101C6000C9B2984705490648224606F083FD1AB0D6
:101C700010BD00BFF8300020B4240020426A0108E3
:101C80002411002010B51C4C1C491D4806F072FDA3
:101C900022781C491A4806F06DFD62781A491848E6
:101CA00006F068FDA2781949154806F063FD6378CF
:101CB000E2781749124806F05DFD2279154910486F
:101CC00006F058FD627914490D4806F053FDA279DB
:101CD00012490B4806F04EFDE179114B114A0848B4
:101CE000002908BF1A46104906F044FDBDE810401F
:101CF0000E49034806F03EBDF8300020656A010831
:101D000024110020D2630108816A0108A46A010835
:101D1000B96A0108D76A0108EA6A0108006B01087C
:101D2000626A01085E6A0108196B0108C66C010845
:101D30002DE9FF412349244806F01CFD234B9B78E5
:101D400053B92349204806F015FD22491E4804B026
:101D5000BDE8F04106F00EBD1F491B481F4C204E48
:101D6000204FDFF8948006F005FD1F49164806F065
:101D700001FD0025637DE3B16278012A1FD01B4B72
:101D80001B49022A18BF0B4694F816E094F9040088
:101D9000B4F902200092BEF1000F14BF314639465B
:101DA0000391A1682278CDE901010748414606F078
:101DB000E1FC0135142D04F11804DBD1C5E70D4B0E
:101DC000E2E700BF3C6B010824110020F83000203E
:101DD000566B0108C76C01086B6B0108642A002070
:101DE0005E6A0108626A0108A26B01082F6B010894
:101DF000366B01082A6B0108D96B01082DE9FF41F8
:101E00001F49204806F0B6FC1F4BDB7853B91F4929
:101E10001C4806F0AFFC1E491A4804B0BDE8F0416A
:101E200006F0A8BC1B4917481B4C1C4FDFF8548018
:101E300006F0A0FC1A49134806F09CFC002006F0AE
:101E40005DFB00250646637D8BB16378022B0ED1C6
:101E5000E36893B1F21ACDE9013294F904300093AA
:101E60002278B4F902303946404606F083FC013549
:101E7000142D04F11804E6D1CDE71A46EBE700BFB4
:101E8000026C010824110020F8300020226C0108A7
:101E9000C16C01083E6C0108642A00209A6C01089C
:101EA0006C6C0108F0B51A491A4885B006F062FC5E
:101EB000194B1B7953B91949164806F05BFC1849B0
:101EC000144805B0BDE8F04006F054BC154911486F
:101ED000154C164E0F4F06F04DFC15490D4806F0F7
:101EE00049FC0025637D6BB1A368029394F904302B
:101EF0000193B4F902300093227D237831463846AD
:101F000006F038FC01350A2D04F11804EAD1D6E7B1
:101F1000E06C010824110020F8300020F86C010862
:101F2000C96C01080B6D01080C2900205F6D0108C8
:101F3000356D0108F0B51A491A4885B006F01AFC4B
:101F4000194B5B7953B91949164806F013FC184927
:101F5000144805B0BDE8F04006F00CBC1549114826
:101F6000154C164E0F4F06F005FC15490D4806F0AE
:101F700001FC0025637D6BB123690293E368019343
:101F800094F9043000932278B4F90230314638468F
:101F900006F0F0FB0135322D04F11804EAD1D6E742
:101FA000806D010824110020F83000209B6D01088D
:101FB000C66C0108B16D0108482C00209A6C01081C
:101FC000E56D01082B4B70B5322500265A7D0AB10C
:101FD0001A691644013D03F11803F7D1264C6379C1
:101FE0000BB1B6FBF3F52549254806F0C3FB627932
:101FF0002449234806F0BEFBA2782349204806F076
:10200000B9FB6378E27821491D4806F0B3FB2279D9
:102010001F491B4806F0AEFB1E491948324606F020
:10202000A9FB1D4916482A4606F0A4FB6378F3B1C4
:10203000E2789FED1A7A07EE902AF8EE677A67EE5B
:10204000877A07EE103AB8EEC77AC7EE877A17EEAE
:10205000900A12F02FFC02460B461149084806F080
:1020600089FBBDE870400F49054806F083BB00229C
:102070000023F2E7482C0020F8300020196E0108F8
:1020800024110020336E01084F6E0108686E0108AC
:10209000816E0108986E0108B76E01080000C84201
:1020A000D86E0108C76C01080378622B05D143780C
:1020B000202B26D10230FFF7ABBD692B03D143782B
:1020C000FBB9FFF7DFBD632B03D14378CBB9FFF733
:1020D0002FBE612B03D143789BB9FFF78FBE772BBF
:1020E00003D143786BB9FFF7DDBE722B03D1437880
:1020F0003BB9FFF71FBF732B03D143780BB9FFF731
:1021000061BF0249024806F035BB00BFF36E01080B
:10211000241100200FB407B5064B04AA1B6852F81F
:10212000041BD868019209F009FF03B05DF804EBC5
:1021300004B0704774060020002000F05BBF000070
:102140002DE9F041BDF81C50B5F5806F06460C46F0
:1021500090461F4606D322482946FFF7DBFF06209C
:10216000BDE8F081022000F0A1FC08B10720F7E7EC
:102170003146022000F0F6FC4FFA88F1022000F010
:102180002DFD3946022000F047FD0699022000F09F
:1021900061FD2146022000F0C7FC8EB90B3C012CEA
:1021A00012D80121022000F0A1FC7DB901210220FA
:1021B00000F06EFD00F0D6FD0130D7D00020CFE753
:1021C000012E01D10C2CECD00021EBE700210220E4
:1021D00000F05EFD2946022000F078FDEAE700BF2E
:1021E0002C6F01087047000084B038B504AC84E857
:1021F0000F000220DDE9085400F058FC20B1072050
:10220000BDE8384004B070470C2C15D92146114860
:10221000FFF780FF0C21022000F086FCA5B90B3CE3
:10222000012C15D80121022000F060FC00F09AFD7D
:102230000130E4D00020E3E7052CEFD82146054823
:10224000FFF768FF0621E6E7012D01D10C2CE9D04C
:102250000021E8E7BC6F01080FB407B5064B07493A
:102260001B6805AAD868019209F068FE03B05DF802
:1022700004EB04B0704700BF74060020E56F01084E
:1022800084B010B502AC84E80F009DF80D10012950
:1022900005D0BDE81040254804B0FFF7DDBF9DF82C
:1022A000293033205BB301F009F840F04101C9B295
:1022B000332000F0F8FF19213B2000F0F4FF9DF8D7
:1022C00027309DF82A402BB31D21112000F0EBFF91
:1022D000402000F0F3FF00F03301402000F0E3FF66
:1022E00000210F2000F0DFFF00210D2000F0DBFFB8
:1022F000D4B10520BDE8104004B001F015B800F0DD
:10230000DDFF00F0BE0141F00101332000F0CBFF02
:102310001D21D1E71F21112000F0C5FF402000F052
:10232000CDFF00F03F01D8E70620E3E7E56F0108A5
:1023300084B02DE9F04106AC84E80F000898BDF8A0
:1023400032609DF83450BDF842700B9CDDF8288057
:1023500000F0CAFF1D2000F0B1FF9DF831309DF85C
:10236000301041EAC3019DF8363041EA881141EA54
:10237000430141EA8501C9B21D2000F094FF1E20EF
:1023800000F09CFFC7F3012100F00C0041EA0411AA
:102390000143C9B21E2000F086FFF9B21F2000F0F1
:1023A00082FF310A202000F07EFFF1B2212000F0F0
:1023B0007AFF25B19DF83510222000F074FF9DF8BA
:1023C00037306BB14B2000F079FF60F07F01C9B26C
:1023D0004B2000F068FF9DF83810242000F063FFC8
:1023E000062C4FF031000FD100F068FF00F0F8012B
:1023F00041F00501312000F056FF0C21BDE8F0410D
:10240000372004B000F04FBF00F058FF00F0F80193
:1024100041F00301312000F046FF0A21EEE7802160
:10242000122000F040BF4021122000F03CBF07B551
:10243000122000F043FF8DF807009DF80700C0F35D
:10244000401003B05DF804FB2021122000F02BBFE8
:1024500008B5192000F032FF030643BF4042C0F325
:102460008500404240F3870008BD84B010B502AC3F
:1024700084E80F009DF938401A2000F01FFF002C5F
:10248000B8BF8B3C4FEA2013B8BF0019BDE810401D
:10249000A8BF8B38184400B204B0704738B5054661
:1024A000132000F00BFF04460146284600F016FFFB
:1024B000204638BD0FB407B5064B04AA1B6852F876
:1024C000041BD868019209F039FD03B05DF804EBF4
:1024D00004B070477406002008B528B90848FFF713
:1024E000E9FF4FF0FF3008BD402905D90548FFF747
:1024F000E1FF6FF00100F6E7BDE8084000F0CEBD57
:102500002470010850700108F8B5074601200D46F7
:1025100014461E4600F0CAFA08B10720F8BD394635
:10252000012000F03DFB2946012000F01BFB71B2A9
:10253000012000F053FBBDF81810012000F06CFBE7
:102540000799012000F086FB2146012000F0ECFAFB
:1025500065B90B3C012C0DD80121012000F0C6FA11
:1025600000F0D2FB0130D8D00020D7E7012D01D1F7
:102570000C2CF1D00021F0E784B038B504AC84E82D
:102580000F000120DDE9085400F090FA20B1072087
:10259000BDE8384004B070479DF91C0000F010FC05
:1025A00050BB012000F082FA0028F0D10C2C15D984
:1025B00021461248FFF77EFF0C21012000F0B4FAFB
:1025C000A5B90B3C012C15D80121012000F08EFA91
:1025D00000F09AFB0130DAD00020D9E7052CEFD8C3
:1025E00021460648FFF766FF0621E6E7012D01D1E7
:1025F0000C2CE9D00021E8E70120C9E7BC6F0108F5
:102600000FB407B5064B07491B6805AAD8680192A5
:1026100009F094FC03B05DF804EB04B0704700BF10
:10262000740600208A70010884B070B504AC84E898
:102630000F0009209DF9404000F040FE06465A2058
:1026400000F03CFE9DF8103003F0FD03012B14BF99
:1026500000238023054606F07F001843030600F0A0
:10266000F00127D5112CCBBF45F0070505F0F80583
:10267000EDB245F0040505F00703072B12D1142C29
:10268000A8BF1424052CB8BF0524631F1943C9B281
:10269000092000F008FE2946BDE870405A2004B029
:1026A00000F001BE112CA8BF1124022CB8BF0224D7
:1026B000A31EEBE70E2CA8BF0E2444EAE4740134F9
:1026C0002143E4E784B008B50DF1080C8CE80F0055
:1026D0009DF80D10012905D0BDE80840124804B04E
:1026E000FFF78EBF9DF827309BB1F521112000F038
:1026F000DAFD402000F0E2FD00F03301402041F01F
:10270000400100F0D0FDBDE80840032004B000F017
:102710000BBEF721112000F0C6FD402000F0CEFDD9
:1027200000F03F01EAE700BF8A70010884B02DE99C
:10273000F0418AB010AC84E80F009DF94C3008934A
:1027400014AD0FCD6C46159EBDF85A70DDF8508063
:102750000FC495E80F0084E80F0010AB0FCBFFF714
:1027600063FF129800F0C0FD9DF85F306BB14B2005
:1027700000F0A4FD60F07F01C9B24B2000F093FD92
:102780009DF86010242000F08EFD1D2000F096FDC5
:102790009DF859309DF8581041EAC3019DF85C300E
:1027A00041EA881141EA83019DF85E3041EA430124
:1027B000C9B21D2000F077FD1E2000F07FFD00F063
:1027C0000F0141EA0611C9B21E2000F06CFD390A62
:1027D000202000F068FD2120F9B200F064FD062EF3
:1027E0004FF0310010D100F069FD00F0F80141F028
:1027F0000501312000F057FD0C2137200AB0BDE85B
:10280000F04104B000F04FBD00F058FD00F0F801B9
:1028100041F00301312000F046FD0A21EDE70821D7
:10282000122000F040BD08B568B1332000F046FD2D
:1028300000F0BE01332000F036FD19213B20BDE839
:10284000084000F030BD332000F038FD00F0BE013C
:1028500041F00101332000F026FD1D21EEE738B5DF
:10286000044622200D4600F01EFD00210E2000F03F
:102870001AFD00210D2000F016FD012000F01EFDC4
:1028800030F0F80304D100F07DFD012005F02AFDB1
:1028900029462046BDE8384000F01BBD0FB407B5FF
:1028A000064B04AA1B6852F8041BD868019209F071
:1028B00045FB03B05DF804EB04B0704774060020DC
:1028C00010B50A4C21788142024605D00848FFF72E
:1028D000E5FF4FF0FF3004E0022001F001F808B9F5
:1028E000207010BD0348FFF7D9FFF2E778310020D0
:1028F000BE7801081479010808B5044804F0D7FC33
:1029000000F043FD024B01221A7108BD083100207E
:102910004831002013B5174C2379022B03D0032B29
:1029200019D002B010BDFFF75DFCFFF7E5FF0320F3
:1029300000F0D6FF012808D000230F4A0093146846
:1029400019461A460120A047EBE70C4802B0BDE843
:102950001040FFF7A3BF204600F05AFD94F828006E
:1029600000F047FD0123237102B0BDE8104000F0E4
:10297000E7BF00BF483100207C3100209478010877
:102980002DE9F041354C267988B046B134483146BE
:10299000FFF784FF4FF0FF3008B0BDE8F081314B06
:1029A0001860314B31481960FFF778FF4FF48070A1
:1029B00006F0A0FE2E4B186028B92E48FFF76EFFD8
:1029C0006FF00100E8E74FF4FA6262620E222273B0
:1029D0000B22294B626108224FF00108A360628339
:1029E00004230522204684F820306285237084F871
:1029F00005802677E67784F81E8084F821602661BA
:102A000084F81980667784F8228084F8288000F0A2
:102A1000FFFC2546014605F8100B1848FFF73EFF5E
:102A20000FCD6F460FC795E80F0087E80F0094E8B9
:102A30000F00FFF7A1FDA5F1100CBCE80F006F46D9
:102A40000FC795E80F0087E80F0094E80F00FFF725
:102A5000CBFB84F8048030469EE700BF483100205D
:102A60008B710108803100207C310020DC7101086D
:102A700000310020097201082021F6364372010856
:102A800008B5042000F02CFF012805D10648FFF707
:102A900005FF4FF0FF3008BDFFF72EFF022000F0CA
:102AA0001FFF0020F7E700BF5972010838B505463F
:102AB00018B90A48FFF7F2FE05E0094C217829B160
:102AC0000848FFF7EBFE4FF0FF3004E0084600F047
:102AD00007FF08B9257038BD0348EBE769760108A0
:102AE00078310020A6760108E976010838B5044659
:102AF0000D4600F01FFF0128084B06D11A78A242AC
:102B000003D1074B00201D7638BD06481A782146B0
:102B1000FFF7C4FE4FF0FF30F6E700BF783100202A
:102B2000483100200A76010838B504460D4600F009
:102B300001FF0128084B06D11A78A24203D1074BA6
:102B400000205D6138BD06481A782146FFF7A6FED1
:102B50004FF0FF30F6E700BF783100204831002009
:102B6000AB75010838B504460D4600F0E3FE0128B8
:102B7000084B06D11A78A24203D1074B00201D61F1
:102B800038BD06481A782146FFF788FE4FF0FF301F
:102B9000F6E700BF78310020483100201D7701089A
:102BA00038B504460D4600F0C5FE0128084B06D195
:102BB0001A78A24203D1074B00201D7338BD064886
:102BC0001A782146FFF76AFE4FF0FF30F6E700BFA4
:102BD00078310020483100202F74010838B50446B0
:102BE0000D4600F0A7FE0128084B06D11A78A24234
:102BF00003D1074B00205D7638BD06481A78214680
:102C0000FFF74CFE4FF0FF30F6E700BF78310020B1
:102C1000483100204C75010838B504460D4600F0D7
:102C200089FE0128084B06D11A78A24203D1074B2E
:102C300000205D8338BD06481A782146FFF72EFE36
:102C40004FF0FF30F6E700BF783100204831002018
:102C50007677010838B504460D4600F06BFE012872
:102C6000084B06D11A78A24203D1074B00209D6081
:102C700038BD06481A782146FFF710FE4FF0FF30A6
:102C8000F6E700BF7831002048310020367801088F
:102C900038B504460D4600F04DFE0128084B07D11B
:102CA0001A78A24204D1074B002083F8225038BD85
:102CB00005481A782146FFF7F1FD4FF0FF30F6E79F
:102CC0007831002048310020D877010838B5044613
:102CD0000D4600F02FFE0128084B06D11A78A242BB
:102CE00003D1074B00205D8538BD06481A78214680
:102CF000FFF7D4FD4FF0FF30F6E700BF783100203A
:102D000048310020EF740108F0B589B000F012FEE0
:102D10000128114B18D11F78012F15D10F4E06F144
:102D2000100500F035FB0FCD6C460FC495E80F0081
:102D300084E80F0096E80F00FFF7F8FC3846FFF72D
:102D4000BFFD002009B0F0BD05481978FFF7A6FDCA
:102D50004FF0FF30F6E700BF783100204831002007
:102D6000CB730108F0B589B000F0E4FD0128114BE8
:102D700018D11F78022F15D10F4E06F1100500F063
:102D800007FB0FCD6C460FC495E80F0084E80F00D9
:102D900096E80F00FFF7CCFA3846FFF791FD0020C8
:102DA00009B0F0BD05481978FFF778FD4FF0FF3006
:102DB000F6E700BF78310020483100206773010832
:102DC000F0B58BB0044600F0B5FD0128104B17D1CB
:102DD0001F78012F14D10F4E089406F110050FCD66
:102DE0006C460FC495E80F0084E80F0096E80F00CA
:102DF000FFF71AFC3846FFF763FD00200BB0F0BD6B
:102E000005481978FFF74AFD4FF0FF30F6E700BF9D
:102E100078310020483100208B7401080E4B1B795B
:102E2000022B13B510D1FFF7FAFAFFF765FD032067
:102E300000F056FD012809D00023084A00931468C9
:102E400019461A460120A04702B010BD044802B03E
:102E5000BDE81040FFF722BD483100207C31002042
:102E6000817201082DE9F041454E3479022C8AB077
:102E700067D1FFF7D8FAFFF7DAFA012829D1FFF76F
:102E8000E3FA96F82250ADB9FFF736FD032000F0C3
:102E900027FD012808D03B4B00951E682A462B468B
:102EA00029462046B04711E037480AB0BDE8F04156
:102EB000FFF7F4BC00F03EFD0328F5D10023314AB2
:102EC0000093156819461A462046A8470AB0BDE87F
:102ED000F081FFF7BDFA06F11005089007460FCD07
:102EE0006C460FC495E80F0084E80F0096E80F00C9
:102EF000FFF7BBFA254C80462068FFF7CFFA96F81B
:102F0000226005468EB9FFF7F7FC032000F0E8FCCD
:102F1000012808D01B4B00971F68216843462A46AA
:102F20003046B847D2E71A48BFE700F003FD032850
:102F3000F9D1144B00971E68216843462A460020A9
:102F4000B0E7032C14D1134804F0B1F9FFF767FC84
:102F5000FFF7D2FC204600F0C3FC012806D00E4B40
:102F60001B6800200AB0BDE8F04118470B489CE7F9
:102F70000B4821460AB0BDE8F041FFF78FBC00BF07
:102F8000483100207C310020C4700108003100204D
:102F90000071010808310020803100203B710108D8
:102FA0006F7101082DE97043044699460D4690461D
:102FB00004F0E8FE636B23B994F838300BB104F0E9
:102FC0008BFC04F12806AE420BD03046FDF76EFDB7
:102FD0003EB1EB681BB15B68294630469847EB6809
:102FE000636342464B46204604F049F9BDE870430E
:102FF00004F0DEBEF0B506468DB0012000F070FC96
:10300000012806D11E48FFF749FC4FF0FF300DB0F4
:10301000F0BD1C4B1C4F18684FF48072002107F163
:10302000100506F0E3FC0FCD6C460FC495E80F00C9
:1030300084E80F0097E80F00FFF722F902233B71A5
:10304000E6B11022002108A806F0D0FC0F4B08932F
:1030500030460F4B0B9311F00BFC00220D4B11F07F
:1030600081FC12F017F802460B460B4808A9FFF73F
:1030700099FF08A8FDF71AFD0020C8E73046C6E70B
:10308000B0720108003100204831002015290008E5
:103090002462010800408F4008310020F0B5304C18
:1030A0002379032B8FB006460D4606D12D48FFF736
:1030B000F5FB4FF0FF300FB0F0BD042000F010FC26
:1030C0000128F3D0FFF718FC0A2005F00BF90220C5
:1030D00000F006FC012000F003FC012801D1224889
:1030E000E5E763791BB1012B03D000270CE01F48F3
:1030F000DDE794F82100FFF796FB2946304684F877
:103100002E50FFF7ACFB676A194E08970FCE6D463D
:103110000FC596E80F0085E80F0094E80F00FFF751
:10312000D1FA0323102200210AA8237106F05EFCC5
:10313000104B0A933846104B0D9311F099FB002267
:103140000E4B11F00FFC11F0A5FF02460B460C4888
:103150000AA9FFF727FF0AA8FDF7A8FC0020AAE7A5
:1031600048310020D7720108077301082E73010847
:1031700058310020152900082462010800408F40C2
:103180000831002010B50C4C204604F033F82046DE
:103190000A4B40F8283B1022002106F027FC0123AF
:1031A00084F83830064B23602046064A0649BDE8BD
:1031B000104001F05FB800BF08310020BC84010856
:1031C00030850108C8010020F50A000810B5044642
:1031D000044B40F8B83BD4F8C4300BB19B68984717
:1031E000204610BD4C8601080FB407B5064B0749B1
:1031F0001B6805AAD868019208F0A0FE03B05DF82C
:1032000004EB04B0704700BF740600207779010812
:10321000F8B50D4C0D4F23681646E2681B040D46A9
:10322000136040F08001094804F084FA013D2E4407
:10323000B54205D015F8011F384604F07BFAF7E7D0
:10324000A36822681A60F8BD40320020783200205E
:10325000F8B50E4C0E4F23681646E2681B040D4667
:10326000136000F07F010A4804F064FA013D2E4427
:10327000B54206D00021384604F05CFA05F8010F8B
:10328000F6E7A36822681A60F8BD00BF403200204C
:103290007832002010B50446FFF798FF204601F071
:1032A00056F9204610BD07B502AB012203F8011DF7
:1032B0001946FFF7ADFF03B05DF804FB07B5012227
:1032C0000DF10701FFF7C4FF9DF8070003B05DF89B
:1032D00004FB0A4601460020FFF79ABF0A46014652
:1032E0000020FFF7B5BF000010B511F0C1FA0CA324
:1032F000D3E9002311F060FC11F00CFE0446C0F38A
:1033000007410620FFF7CFFFC4F307210720FFF78F
:10331000CAFFE1B20820BDE81040FFF7C4BF00BFFC
:103320000000000080844E40144910B50A7804461D
:1033300090B932B901230B70114BDA681B681B047A
:1033400013600120FFF7BAFF00F0F80121430120CC
:10335000BDE81040FFF7A7BF094B2AB11A6800204B
:103360000870D96812040A60032C1A6803D0DB685D
:1033700012041A60E5E79B68FBE700BF54330020A6
:10338000243200200120FFF7CFBF0020FFF7CCBF81
:1033900010B504460120FFF791FFC0F3C01084422E
:1033A00026D0012C13D0FFF7F0FF0120FFF786FF96
:1033B00000F07F010120FFF776FF00214020FFF79A
:1033C00072FF30214120BDE81040FFF76CBFFFF7CE
:1033D000DCFF2046FFF772FF60F07F01C9B2204694
:1033E000FFF761FF00214020FFF75DFF0021E9E7C3
:1033F00010BD10B504460120FFF7CAFF2CB13421DF
:103400003920BDE81040FFF74EBF1221F8E7000059
:103410002DE9FF47594C054604F0B4FC0121204634
:1034200000F000FC04F0C4FC2368E2681B04136095
:10343000012004F057FF04F0A5FC2046002100F015
:10344000F1FB04F0B5FC062004F04CFF2E784C4C48
:10345000042E1CD104F096FC0021204600F0E2FB73
:1034600004F0A6FC012004F03DFF63681A6823689D
:103470001A4214BF0126002604F084FC20460121D4
:1034800000F0D0FB04F094FC012004F02BFF236833
:10349000E2683C483C4C1B0413603C4B9A681B6838
:1034A00013600821002204F023F9394804F00CFFCE
:1034B0000020FFF739FF1022ACBB2146684606F01A
:1034C00095FA69463348344C04F021F86846FDF714
:1034D000EDFA10227CBB2146684606F087FA694661
:1034E0002E48DFF8C8802E4C04F011F86846FDF72E
:1034F000DDFA4FF0030900235F1CDBB2D8F800208F
:10350000B2FBF9F29A421ED903EB430304EB030A20
:10351000E05CFFF73DFF9AF802109AF80100FFF710
:10352000C2FE3B46E8E70021684606F05FFA1D4B05
:1035300000940393C5E70021684606F057FA194B3B
:1035400000940393CBE76879174CFFF721FF95F8B8
:103550002800FFF74EFF4220FFF7B0FE38B92046A3
:10356000FFF742FE4FF07E5004F0AEFEF3E7A8688E
:10357000FFF7BAFE304604B0BDE8F0875C320020A9
:103580002432002078320020652E000840320020CE
:10359000CDCCCC3D843100201D2E0008D43100203C
:1035A000447901082462010877790108D0010020DC
:1035B00073B5224D224C234E0A21284603F04CFFBE
:1035C0002846214D2246314600F054FE132128465C
:1035D00003F042FF2246314628461C4D00F04AFEC9
:1035E0004FF0FF330093062205230721284604F0FD
:1035F000D3F822461649284600F03CFE154B1C2401
:1036000022461846002106F0F1F9162103F0DAFEF1
:10361000114B22461846002106F0E8F9002103F07C
:10362000BEFE0E4B22460021184606F0DFF921218E
:1036300002B0BDE8704003F0B2BE00BF843100208C
:10364000C8010020B1740008D43100207832002075
:10365000CD310008403200205C32002024320020AE
:103660000FB407B5064B04AA1B6852F8041BD868B0
:10367000019208F063FC03B05DF804EB04B07047FE
:103680007406002013B5084B0024CDE90034012254
:10369000082307212046FEF753FDFEF74DFD034B9F
:1036A0001C7002B010BD00BF2021F636553300203B
:1036B00010B5044648B9FFF7E3F9FFF7E3FF084BFD
:1036C0001B682046BDE810401847012807D1FFF7C6
:1036D000D7F9FFF7D7FF024B02201B68F2E710BDB6
:1036E000983300202DE9F041884615461F469DF984
:1036F000186000283BD1202A03D92648FFF7B0FFE5
:103700002025254C2A464146204606F059F8234BF1
:103710001F80234B1E7026782746FEB9214BA478C4
:103720001B78A34201D0FF2C1BD1A4F1FF035C4204
:103730005C4101261C4B1B78ABB9FFF7A1F9FFF7E1
:10374000A1FF012E24D1194B787819492A1F1D6831
:10375000D2B22346AC46BDE8F0416047002426467D
:10376000E8E73446E6E71348FFF77AFFE9E7013870
:1037700001280DD80C4B1B782BB9FFF781F9BDE858
:10378000F041FFF77FBF0B48BDE8F041FFF768BF8E
:10379000BDE8F081847A010856330020A23300206E
:1037A000A0330020A4330020553300209C33002098
:1037B0005A330020C97A01080A4B10B518700A4B19
:1037C00019600A4B0A491A6004460A48FFF7D8F8FC
:1037D000094B00225C701A70FFF752F9BDE81040E7
:1037E000FFF750BFA4330020983300209C33002003
:1037F000E5360008B136000876330020F7B5184FDB
:103800003C7834B117482146FFF72AFF012003B066
:10381000F0BD1C2905D914482022FFF721FF032001
:10382000F5E7124D0E1DAA70F6B20A460146281D94
:103830002C70EE7005F0C4FFFFF722F90C4A082344
:10384000CDE900322146012307220E20FEF75CFE5F
:1038500031462846FEF740FE01233B702046D6E75E
:103860005533002099790108DA7901087633002070
:103870002021F636014BB3F900007047A233002037
:10388000014B93F900007047A033002010B5074B9F
:103890001C78012C05D106482146FFF7E1FE2046A1
:1038A00010BD044B18700020FAE700BF553300200C
:1038B000247A0108A43300200FB407B5064B07494A
:1038C0001B6805AAD868019208F038FB03B05DF8C0
:1038D00004EB04B0704700BF740600203E7B010873
:1038E00037B501460D480E4A037803EB83052A4499
:1038F000545C012C06D00B4B2B445B5C03702046C0
:1039000003B030BD0848642202FB03000090074862
:1039100002FB01020648FFF7CFFFF0E7A5330020C6
:103920002A7B0108167B0108C8030020D40100206F
:103930003E7B0108014B1878704700BFA53300207B
:10394000014B00221A707047A533002043692DE90E
:10395000F0410D46D907044628D58168334F826867
:10396000334E836833483940B94202EA060204BF45
:103970000127A760B24203EA000304BF4FF4807638
:10398000A660834204BF4FF48030A0602748814284
:1039900005D027498A4202D0264A934206D1264BB7
:1039A000264A1B6852F8250001219847E26863699E
:1039B000920708D09F0706D51F4B204A1B6852F874
:1039C000250000219847A169626963698E070AD5BD
:1039D000900508D5190406D5174B184A1B6852F8EC
:1039E000250005219847A7696669626917F00407F1
:1039F00006F4806609D046B1120406D50E4B0F4A74
:103A00001B6852F825000721984763695FB156B1DA
:103A10001B0408D5084B094A1B6852F825000221EF
:103A2000BDE8F0411847BDE8F08100BF0300000485
:103A30000003000800000310B0330020A83300206A
:103A400000210148FFF782BF00640040FFF7F8BF84
:103A5000FFF7F6BF01210148FFF778BF006800407B
:103A6000FFF7F8BFFFF7F6BF30B5036891FAA1F48E
:103A7000B4FA84F491FAA1F10325B1FA81F164005A
:103A800005FA04F4490023EA040302FA01F1194398
:103A9000016030BD00B5002389B007286FD8DFE88A
:103AA00000F00413202D3A4754610093364B3748F9
:103AB0001A6B42F001021A631B6B03F001030093BF
:103AC000009B09B05DF804FB01932F4B30481A6B43
:103AD00042F002021A631B6B03F002030193019B85
:103AE000EFE70293284B2B481A6B42F004021A634B
:103AF0001B6B03F004030293029BE2E70393224B48
:103B000025481A6B42F008021A631B6B03F0080386
:103B10000393039BD5E704931B4B20481A6B42F099
:103B200010021A631B6B03F010030493049BC8E795
:103B30000593154B1A481A6B42F020021A631B6B4F
:103B400003F020030593059BBBE706930E4B154836
:103B50001A6B42F040021A631B6B03F0400306939A
:103B6000069BAEE70793084B0F481A6B42F08002A2
:103B70001A631B6B03F080030793079BA1E70B48B5
:103B800004F068FC00209CE700380240000002407E
:103B90000004024000080240000C024000100240F5
:103BA0000014024000180240001C0240147E01086C
:103BB000431C10B5044604D176220649064803F09A
:103BC000CBFE2046002100F00DFE04F00F04012082
:103BD000A04010BD357E01088F7E010870B50446F7
:103BE0004B1C0E46218216D0C1F30310FFF752FF83
:103BF00005463046FFF7DCFF238A074A656103F07C
:103C00000F03206052F82330A36105F1100318352B
:103C10006360A560E56070BD4C810108B0F91000DB
:103C200000F078BE0A4619B981694069FFF71CBFE8
:103C30000122F9E74C23F0B54343224E224F1A1DCF
:103C4000324400244FF0010E1E448C4205D101463F
:103C5000BDE8F0401D4804F0FDBB33680EFA04F5E2
:103C60001D422BD0136B7D690EFA03F32B4225D036
:103C7000D2F818C07B61156805B3FA6833EA02020E
:103C800003D1BA6833EA020214D10F4A916833EAC9
:103C9000010103D1D26833EA02020DD1DCF8102011
:103CA000134214BF01210221094B28461B68BDE8BD
:103CB000F04018470221F7E70121F5E7013404320B
:103CC000C3E700BFB4330020003C0140C97E0108B7
:103CD000C835002006210846FFF7ACBF052108467D
:103CE000FFF7A8BF01210420FFF7A4BF0121032093
:103CF000FFF7A0BF01210220FFF79CBF012108466A
:103D0000FFF798BF01210020FFF794BF012910B5EC
:103D100018D11B4C838952B1A26803F00F0399405C
:103D20001143A160836843F00103836010BDA26862
:103D300003F00F03994022EA0101A160836823F098
:103D40000103F2E70229F1D10D4983895AB1CC6808
:103D500003F00F03012202FA03F32343CB608368CD
:103D600043F00203E1E7CA6803F00F03012404FAF9
:103D700003F322EA0303CB60836823F00203D4E752
:103D8000003C0140B0F90C3099B270B501F00F065B
:103D900006F00C0404F1804404F59C3401F00301A6
:103DA000A56889000F228A40C3F3031325EA0205A0
:103DB0008B402B43A3600F4B01221968B240114383
:103DC00019608468E50742BF996811439960A107AB
:103DD00042BFD9680A43DA6090F90030002B08DB53
:103DE0005909012203F01F0302FA03F3024A42F8C1
:103DF000213070BD003C014000E100E02DE9F04FB2
:103E000092464A1C85B080460C4666D0002203923A
:103E1000334A344F516C41F480415164526C02F486
:103E200080420392039A04F00F090C2202FB0972EC
:103E3000C4F303105568062D47D8DFE805F0043AAF
:103E40003C3E40424400284E0193FFF723FE0C21E4
:103E500001FB09F17A1857F801E0244FA8F80C404B
:103E60004C21694301247B5892F90820C8F804507A
:103E700004FA0EF44FF0000B1C4388F80020C8F839
:103E800008B07C50132101FB05E507EB8501019B80
:103E90004B60174BC861C3F800A0164BC1F83490B3
:103EA0009B681032404643F82260FFF76BFF58468C
:103EB00010E0114EC8E7114EC6E7114EC4E7114E8F
:103EC000C2E7114EC0E7114EBEE7114804F0C2FA36
:103ED0004FF0FF3005B0BDE8F08F0846FAE700BFAD
:103EE00000380240F47E0108053D0008B43300208C
:103EF000C835002000ED00E0FD3C0008F53C00085E
:103F0000ED3C0008E53C0008DD3C0008D53C00081D
:103F1000A27E01088389184A03F00F03012110B51E
:103F200001FA03F39468DB431C409460D4681C409E
:103F3000D46014682340136090F90030002B0CDB30
:103F40005A0903F01F0301FA03F320320B4941F829
:103F50002230BFF34F8FBFF36F8F90F90030002BEB
:103F600009DB5A09012103F01F0301FA03F3603250
:103F7000024941F8223010BD003C014000E100E060
:103F8000838903F00F020C235343104A70B5446831
:103F9000D658FFF7BFFF4C210D4A6143012000FABC
:103FA00006F55058132303FB046320EA0500505024
:103FB00002EB830000214160981D0C3302EB80006E
:103FC00002EB83034160596070BD00BFF47E0108BD
:103FD000B433002008B503F07DF8002008BD0000D0
:103FE00008B50A4B1B684BB103F0F0F904F0EFF889
:103FF0004FF47A72002310F0FDFF08BD03F0BEF805
:104000004FF47A73B0FBF3F008BD00BFCC3500204D
:1040100010B588B003F0B6FE052101A803F0D2F96F
:104020000424039B019A1A60962004F05BF9019B1B
:10403000049A1B041360962004F054F9013CF0D15B
:104040000424039B019A1A604FF4C87004F04AF9E3
:10405000019B049A1B0413604FF4C87004F042F9EA
:10406000013CEED1DCE7000070B50D46A0B004467F
:1040700003F088FE2B4622468021684609F0ACFBFF
:10408000051E03DC03F094FE20B070BD094B1B68D5
:1040900023B903220221084800F090FE064E0024B6
:1040A0001DF804103046013401F06AF8A542F7D13A
:1040B000E8E700BF14360020BC3700200FB407B576
:1040C00004A951F8040B0191FFF7CEFF03B05DF88E
:1040D00004EB04B07047000008B502F0A9FF01F03E
:1040E000ADF802F095FF02F0A3FF024B01221A6027
:1040F00008BD00BFCC3500200020704703680122B6
:104100001B6900211847036800221B6911461847E4
:1041100003681B69184703689B69184703689B6A13
:10412000184700290CBF6FF01800002070470120CD
:1041300070471120704770476FF01C0070476FF098
:10414000150070470120704700207047704700003D
:10415000F8B5074E15460C468F18BC4205D014F82A
:10416000011B304601F00CF8F7E72846F8BD00BF08
:10417000BC37002038B58DB215F0010405D00848D1
:1041800000F098FD041C18BF0124EB0605D5044877
:1041900000F0A6FD08B144F01004204638BD00BF71
:1041A000BC37002010B5044605F0ACFA204610BD1F
:1041B00010B50C462AB1044800F0D0FF2070012051
:1041C00010BD104610BD00BFBC37002038B51D46DD
:1041D000074B0360074B1B68044633B9064800F0E1
:1041E000EDFD2946044800F0B1FD204638BD00BF72
:1041F0003080010814360020BC37002000207047B2
:104200000020704708B5012000F036F80C4A13680A
:1042100010B51844EFF30881884205D3094B0C22EE
:104220001A604FF0FF3010BD07490C6824B10749F0
:10423000096821448842F1D21060184610BD00BFC1
:104240005806002084370020E0350020E4350020A7
:10425000074C08B523680546986804F045FC2368B8
:10426000D86804F041FC0DB1FFF7D2FEFEE700BFB5
:10427000740600200120704708B5FFF7E9FF012010
:104280007047002105F0EEBC04F068BC7047704731
:1042900008B5FFF7FBFF08BD08B5FFF7F8FF08BD3D
:1042A00010B5037803F00303012B04460CD02BB1A7
:1042B00040F2A9520549064803F04EFB237843F02B
:1042C00002032370012010BD002010BD788001087A
:1042D000CF80010810B5037803F00303022B0446D6
:1042E00005D040F2B1520549054803F035FB23786B
:1042F00023F0030343F00103237010BD788001080D
:10430000F58001083F2870B504462FDC184D55F89C
:1043100020305A1C13D1022811DCFFF771FF03462D
:1043200058B92046FFF76AFF034630B9114E33787B
:10433000BFF35B8FDB0704D50F4B45F824301846DD
:1043400070BD3046FFF7ACFF0028F5D04FF4165390
:10435000032202210848FFF739FF3046FFF7BAFF72
:10436000064A07490448FFF785FFE5E70023E6E72B
:1043700058050020D0350020DC350020C801002081
:104380004D41000838B50546FFF7BCFF0B4B002434
:1043900043F8254030B904F06DFA092303604FF06B
:1043A000FF3038BD03685B699847051E04DA04F0E6
:1043B00061FA6D420560F2E7204638BD58050020DD
:1043C000FFF7E0BF38B50C461546FFF79BFF38B93D
:1043D00004F050FA092303604FF0FF34204638BD43
:1043E00003682146DB682A469847041EF6DA04F083
:1043F00041FA64420460EFE708B5131E06DA04F0E0
:1044000039FA162303604FF0FF3008BD04D0FFF7E0
:10441000D9FF40EAE07008BD184608BD38B50C4623
:104420001546FFF76FFF38B904F024FA092303603B
:104430004FF0FF34204638BD036821469B682A466A
:104440009847041EF6DA04F015FA64420460EFE7B8
:10445000002A08B503DBBDE80840FFF7DFBF04F022
:1044600009FA162303604FF0FF3008BD10B5FFF7BF
:1044700049FF044628B904F0FDF9092303602046EA
:1044800010BD0368DB699847041EF8DA04F0F2F9FE
:10449000644204600024F2E71FB504220C46402366
:1044A0000DEB020101900DF109008DF8083005F0C7
:1044B00087F9214602A804F0DFFC044630B10198D8
:1044C000FFF7D4FF10B12046FFF7DBFE204604B013
:1044D00010BDFFF7CBBF38B50C461546FFF712FFEE
:1044E00038B904F0C7F9092303604FF0FF342046C0
:1044F00038BD036821461B692A469847041EF6DA30
:1045000004F0B8F964420460EFE7FFF7E4BF38B5A0
:104510000D46FFF7F7FE044630B904F0ABF9092366
:1045200003604FF0FF3038BD0368DB69984700280F
:1045300014BF4FF400534FF400436B6023682046D0
:104540009B6A98472861002038BDFFF7E0BF05F05F
:10455000D9B80000034610B553F8042B044602B93D
:10456000036022689A4204D05E220349034803F0A4
:10457000F3F9206810BD00BFB47F01081380010863
:1045800010B504460948FFF7E5FF0023084A19461D
:1045900052F82300A04208BF42F823100133402BF9
:1045A000F6D10248FFF7D6FF10BD00BFD43500207A
:1045B0005805002010B50F48FFF7CCFF0E4B032421
:1045C00053F824206AB10134402CF9D104F052F997
:1045D000182303600748FFF7BDFF4FF0FF34204664
:1045E00010BD4FF0FF32034843F82420FFF7B2FF1D
:1045F000F5E700BFD43500205805002010B504466B
:10460000FFF7D8FF0028A4BF014B43F8204010BD9E
:104610005805002070B506460C46FFF7EFFF05462B
:1046200090B12146FFF738FF044630B9074B53F8E5
:104630002520964203D143F82500204670BD04F0A2
:1046400019F909230360F8E70446F6E75805002046
:104650000EB42DE9F04185B00546FFF7ABFF041E0F
:1046600013DB0023294602A8019303F0C7FD02A82B
:1046700003F016FE1B4D064668B904F0FBF8132341
:10468000036045F824604FF0FF34204605B0BDE8D4
:10469000F04103B0704702A803F0F0FD074602A8FE
:1046A00037B103F0F4FD0190019B45F82430ECE7AD
:1046B00003F0DBFD06460028DFD0036802A8D3F82C
:1046C000088003F0C7FD0B9B024601A93046C04796
:1046D00006460028E8D004F0CDF87642066045F89A
:1046E0002470D0E75805002073B50E4618490546DA
:1046F00005F0EAFB044620B9FFF704FE204602B0AD
:1047000070BD1449284605F0DFFB20B90120FFF7F2
:10471000F9FD0124F2E71049284605F0D5FB20B940
:104720000220FFF7EFFD0224E8E72B78402B07D1AA
:104730000422691C0DEB020005F042F8019CDDE744
:1047400026F400412846FFF783FF0446D6E700BF62
:104750003C8101084381010834810108704770479A
:10476000074B08499A68084810B5043A52F8044FB4
:1047700041F8044F8142F9D14FF000529A6010BDC8
:1047800000ED00E0FCFFFF1FC001002008B5FFF7AF
:10479000E7FFFFF7A1FCFFF7E2FF08BD08B5FFF751
:1047A000DDFFBDE80840FBF787BD30B5C36891FA6F
:1047B000A1F4B4FA84F491FAA1F10325B1FA81F1DC
:1047C000640005FA04F4490023EA040302FA01F143
:1047D0001943C16030BD012A02D0022A18BF00224D
:1047E000FFF7E3BF2DE9F0410E46411C044604D11A
:1047F0003E224449444803F0AFF804F00F08434B0D
:10480000C4F3031053F82850FFF744F906F00707E4
:104810000446836895FAA5F1B1FA81F195FAA5F2FB
:104820000320490000FA01F1B2FA82F223EA0103FF
:104830005200022101FA02F21343A36087425AD8C0
:10484000DFE807F05E1D021DB8F1070FC6F3032075
:104850003BD9626A2B0A93FAA3F1B1FA81F193FA78
:10486000A3F34FF00F0EB3FA83F389000EFA01F1B0
:104870009B0022EA010200FA03F3134363623B4602
:10488000226895FAA5F0B0FA80F095FAA5F14FF0FC
:10489000030EB1FA81F140000EFA00F0490022EA5D
:1048A00000028B40013F1343012F236005D863684A
:1048B00032074CBF2B43AB436360C6F3011229465A
:1048C0002046BDE8F041FFF786BF226A95FAA5F3BE
:1048D000B3FA83F395FAA5F14FF00F0EB1FA81F117
:1048E0009B000EFA03F3890022EA030200FA01F3A7
:1048F00013432362C3E767220249054803F02CF8FB
:104900000023BDE78C8101088F7E01084C810108DE
:1049100083880108431C70B506460D4604D18822E1
:104920001B491C4803F018F806F00F021A4BC6F397
:10493000031053F82240FFF7ADF804FB04F20168BE
:1049400002EB42030B40B3FBF2F3013B012B05D812
:10495000EB1E022B436809D823434360032D08D183
:1049600001222146BDE87040FFF735BF23EA04036A
:104970004360012DF4D0052D01D0022D01D102227A
:10498000EFE721460022BDE87040FFF70EBF00BFF1
:104990008C8101088F7E01084C81010870B5A6B09A
:1049A0003422002102A805F021F85C2200210FA882
:1049B00005F01CF82A4B1D68002D4FD1294C01959C
:1049C00001261E60236C43F080532364236C03F0A4
:1049D00080530193019B00F05DFC042302A8029325
:1049E0000895049600F0C0FF10B11F4803F032FD97
:1049F000A36823F4F813A360A36823F4F813A36057
:104A0000236F43F48073236720230F930FA84FF481
:104A100080731F9300F058FD10B1144803F01AFD85
:104A2000134B144801221A60134B03600322002326
:104A3000826041F6FF7243774360C2600361436165
:104A4000836101F05EF910B10C4803F003FD0948E1
:104A500001F089FA10B10A4803F0FCFC26B070BDE1
:104A6000F035002000380240E4810108048201088A
:104A70003C0E4742F4350020002800402D820108FA
:104A800047820108F0B51F4B1F491C681F4A5D682B
:104A90008BB00C4015401E460F46186808408442F3
:104AA0002BD158681040854227D105F03F0001F016
:104AB00051FA0490C5F3042001F04CFA0138059036
:104AC000280C01F047FA44300690C4F3054001F089
:104AD00041FA0390C4F3062001F03CFA029004F07E
:104AE0007F0001F037FA01220190694601A802F027
:104AF00051FF00B100980BB0F0BD346875683C40C0
:104B00001540CAE7002800407F7F7F003FFFFF007D
:104B1000024BD868C0F30010704700BF0028004067
:104B2000214B224A2DE9F0411D691C689E6AC5F39C
:104B30000E05144018461746196811408C422ED1B4
:104B4000996A8E422BD1C4F3054001F003FA07465F
:104B5000C4F3062001F0FEF9804604F07F0001F066
:104B6000F9F9134A13493C2313FB08004FF461631E
:104B700003FB07001368146898420B683CBF03F5F9
:104B8000A83303F5C0731B1B03440B601060086857
:104B9000013DC00305EB9000801BBDE8F081046877
:104BA000866A3C40C8E700BF002800407F7F7F0046
:104BB000EC350020E835002030B591B000211422FA
:104BC000044602A8019104F011FF03F0DBF82A4B20
:104BD0002A4A1A6007A90122204602F02BFF00286A
:104BE00048D00D9B03B907238DF804300B9B01338C
:104BF0008DF805300A9B8DF806300C9B443B8DF8F0
:104C00000730099B8DF80830089B8DF80930002487
:104C1000079B8DF80A308DF80B4005940694FFF73A
:104C20007FFF9DF809109DF80A2013483C2313FBD1
:104C300001229DF808304FF4616101FB0323104A03
:104C400013600E4B224601A99D6A01F0B3F810B122
:104C50000C4803F0FFFB002202A9074801F00AF903
:104C600010B1094803F0F6FB044A936A9D42FCD157
:104C700003F09EF811B030BDF4350020002800404C
:104C8000EC35002060820108778201080FB407B577
:104C9000064B07491B6805AAD868019207F04EF930
:104CA00003B05DF804EB04B0704700BF7406002049
:104CB0008E8201084368094A9B0182B0D3581A6862
:104CC000120706D5002201921A6801925A680192D1
:104CD000019A1868C0F3401002B0704708380020ED
:104CE0004368034A9B01D3581868C0F3C01070474B
:104CF0000838002042681449920110B404685450E6
:104D0000531882685A60C2689A600269DA60426920
:104D10001A61026A9A610022DA84DA619A84DA8579
:104D20009A85B0F91A20013206D108225A61184634
:104D30005DF8044B01F0B1BEB0F9182001320CBF90
:104D400004220C22F2E700BF0838002010B5816071
:104D50000C46FFF7CFFF28B121460348BDE81040BD
:104D6000FFF794BF10BD00BF8E820108124B98421E
:104D700017D0A3F54C43984215D003F580639842B1
:104D800013D003F58063984211D003F580639842F5
:104D90000FD003F5444398420CBF05204FF0FF307D
:104DA00070470020704701207047022070470320A1
:104DB00070470420704700BF00100140F0B50E4658
:104DC00087B004465B493046154602F037FC5A4925
:104DD0000746284602F032FC0146384602F008FC3D
:104DE0002060013004D13D225449554802F0B4FD01
:104DF000022E0CD0032D0AD04E49022002F01EFCD8
:104E0000874202D14F4803F025FB002700E001272D
:104E10004D4B206898424FF000031AD100934B4B42
:104E20005A6C42F010025A645B6C03F0100300935A
:104E3000009B474B984229D100230593434B5A6C62
:104E400042F020025A645B6C03F020030593059B3B
:104E50001CE0404A90420BD101933C4B1A6C42F447
:104E600000321A641B6C03F400330193019BE0E7EA
:104E7000394A904240D10293344B1A6C42F480225A
:104E80001A641B6C03F480230293029BFFF76EFFEE
:104E90000028606004DAA4222849304802F05CFD52
:104EA0002449304602F080FB2349284602F07CFB6F
:104EB000721C03D001213046FFF72CFD6B1C03D080
:104EC00001212846FFF726FD4FF41653A360002367
:104ED000E360236163612362268365832046FFF7D5
:104EE00009FF3FB11E4B1F4801221A6021464C2288
:104EF00004F066FC07B0F0BD1B4A90420BD103934F
:104F0000124B1A6C42F400221A641B6C03F4002347
:104F10000393039BBAE7154A90428AD104930B4B43
:104F20001A6C42F480121A641B6C03F4801304930D
:104F3000049BABE79C7D0108247D0108B882010831
:104F4000148301083083010800100140003802403A
:104F500000140140004400400048004065830108FF
:104F600014360020BC370020004C004000500040A8
:104F7000002808DB4209012300F01F0003FA00F0BB
:104F8000014B43F82200704700E100E000280DDBF0
:104F90004309012200F01F0002FA00F02033044A06
:104FA00042F82300BFF34F8FBFF36F8F704700BFEE
:104FB00000E100E0F7B5FFF7D9FE071E26DB144E2F
:104FC00056F8270010B3134CBD0163591A68120636
:104FD00006D5DB68190603D50F4B01211B689847DE
:104FE00063591A68920608D5DB68980605D50A4BFE
:104FF00056F827001B680021984763591A68110763
:1050000004D55A69D20744BF5B68019303B0F0BD71
:105010001C36002008380020183600200148FFF711
:10502000C9BF00BF001401400148FFF7C3BF00BF64
:10503000005000400148FFF7BDBF00BF004C0040DA
:105040000148FFF7B7BF00BF004800400148FFF725
:10505000B1BF00BF004400400148FFF7ABBF00BF35
:1050600000100140034B19604168034B43F82120B5
:10507000704700BF183600201C36002030B490E87E
:1050800018002C48834233D00AD8A0F50060834230
:1050900028D000F58060834227D0002318460FE017
:1050A000254883420AD000F58060834223D0A0F5D2
:1050B00044408342F1D1214B352001E0204B252093
:1050C000204DA401FAB1C9B92959CA6842F0200299
:1050D000CA601D4A00F11001926830BC42F82130CC
:1050E000FFF746BF194B2620EAE7194B2720E7E7D1
:1050F000184B3420E4E7184B4720E1E72959CA68E8
:1051000042F08002E4E72B59DA6849B922F0200224
:10511000DA60DB6813F0800F09D130BCFFF736BFCF
:1051200022F08002DA60DB6813F0200FF4E730BC75
:10513000704700BF004C004000100140295000089B
:10514000595000080838002000ED00E04D500008DC
:1051500041500008355000081D50000838B544681B
:1051600005462846FFF7A6FD0028FAD0A401034B08
:105170001B595868C0F3080038BD00BF083800202C
:1051800070B5456806460C463046FFF7A9FD002875
:10519000FAD0AD01024B5B59C4F308045C6070BDEA
:1051A0000838002008B50E4AC36D934214D008D8C1
:1051B000A2F5806293420FD00A4803F04BF9002019
:1051C00008BD094A934203D002F580629342F3D1AD
:1051D000BDE8084000F04AB9BDE8084000F036B923
:1051E000003C00407783010800300140DFF830D0F8
:1051F000002103E00B4B5B58435004310A480B4B32
:1052000042189A42F6D30A4A02E0002342F8043BCD
:10521000084B9A42F9D301F01FFEFAF7F7FF7047E7
:105220000000022010920108C80100204810002050
:1052300048100020D0390020FEE7704708B50B4B1E
:105240001A6842F400721A601A6842F480621A60A6
:105250001A6842F480721A60032000F009F80F20E7
:10526000FEF7B8FEFFF7E9FF002008BD003C024052
:10527000074AD36823F4E0631B041B0C43F0BF63AD
:10528000000243F4003300F4E0600343D36070474E
:1052900000ED00E0014B01221A60704720000E4231
:1052A00037B500230193184B184C1A6C42F080520A
:1052B0001A641B6C03F080530193019B144B012271
:1052C0001A60FEF78DFE05466368DA030BD5114BB5
:1052D0000E4C01221A60FEF783FE054663689B03AD
:1052E0000AD5002006E0FEF77BFE401BB0F57A7F72
:1052F000EAD9032003B030BDFEF772FE401BB0F5C3
:105300007A7FEBD9F5E700BF00380240007000401B
:1053100040000E4244000E422DE9F0410D46044685
:1053200010B90120BDE8F081444B1A6802F00F0269
:105330008A4228D321688F072DD4C80740D43F4B19
:105340001A6802F00F02954266D3226851076CD4A6
:10535000130707D53A4A2169936823F4604343EA67
:10536000C103936000F0B8FA354B364A9B68C3F32B
:105370000313D35CD840344B18600F20FEF72AFE8D
:105380000020BDE8F081CAB21A701B6803F00F0359
:105390009942C6D1CEE72A4B11F0040F1EBF9A687E
:1053A00042F4E0529A600E0742BF9A6842F46042AB
:1053B0009A609A68A06822F0F00202439A60BCE703
:1053C00062681F4B012A1DD11B6813F4003FA8D04F
:1053D0001B4EB36823F003031343B360FEF700FED4
:1053E00041F288380746B368626803F00C03B3EBF8
:1053F000820FA4D0FEF7F4FDC01B4045F3D9032073
:10540000BDE8F081911E01291B6802D813F0007FCE
:10541000DDE713F0020FDAE7EAB21A701B6803F057
:105420000F039D427FF47DAF8FE70549E0688B68ED
:1054300023F4E05303438B608AE700BF003C024043
:10544000003802407D8401085C060020044B054AB8
:105450009B68C3F38223D35C034A1068D84070472B
:10546000003802408D8401085C060020044B054A88
:105470009B68C3F34233D35C034A1068D84070473B
:10548000003802408D8401085C0600200F23036071
:105490000B4B9A6802F0030242609A6802F0F00235
:1054A00082609A6802F4E052C2609B68DB0803F4F1
:1054B000E0530361034B1B6803F00F030B6070475D
:1054C00000380240003C024003682DE9F74313F026
:1054D000010604460BD0AA49866BD1F88C2022F035
:1054E000C0623243B6FA86F6C1F88C2076099D0771
:1054F0000BD5A348E16BD0F88C2022F0C0520A43B0
:105500000029C0F88C2008BF012613F0040512D032
:105510009B49256BD1F88C20B5F5801F22F44012F1
:1055200042EA050218BFB5FA85F5C1F88C2012BF12
:105530006D090025012618070FD59148616BD0F839
:105540008C2022F440020A43B1F5800FC0F88C2071
:1055500000F00981002908BF0125990633D50023F1
:105560000193874B874F1A6C42F080521A641B6C70
:1055700003F080530193019B3B6843F480733B60CD
:10558000FEF72EFD80463B68DA0540F1EE807C4F49
:105590003B6F13F4407340F0FB80236C03F44072C4
:1055A000B2F5407F764A40F01681916823F0704052
:1055B00021F4F81120F4407001439160116FC3F39E
:1055C0000B030B4313672368D90642BF6E4B94F855
:1055D00058201A6023681A0608D56949E06CD1F88A
:1055E000942022F440020243C1F894205F0608D5BB
:1055F0006349A06CD1F8942022F080620243C1F884
:105600009420D8050CD55E48616DD0F8942022F026
:1056100000620A43B1F1006FC0F8942008BF012571
:10562000990508D55649606CD1F8942022F0805233
:105630000243C1F894205A0500F1D180012E40F0B8
:10564000DC80524E4E4F00233360FEF7C9FC80468B
:105650003B681B0100F125812268D00701D5A36BAF
:105660001BB1910715D5E36B9BB94549D1F884303F
:10567000D1F8840003F4403300F0706003436068A5
:105680000343A06843EA8013606943EA0073C1F8EA
:105690008430530703D5236BB3F5801F05D017075C
:1056A00020D5636BB3F5800F1CD13549D1F8843018
:1056B000D1F8840003F4403300F0E0400343606815
:1056C0000343A06843EA8013206943EA0063C1F8FA
:1056D0008430D1F88C00A36A20F01F00013B034303
:1056E000C1F88C3050051BD5236DB3F1005F17D185
:1056F00023486768D0F88410D0F8843003F0E04382
:105700003B43A768C1F30141013143EA871343EAF0
:105710004163E1684908013943EA0143C0F8843034
:10572000110511D52369A2681B0643EA821362683A
:105730001343626943EA0273E2685208013A43EA9A
:1057400002430F4AC2F8843001233360FEF748FC5D
:105750000B4E074633681A0153D4FEF741FCC01BB9
:105760000228F7D908E00126F7E6FEF739FCA0EB9E
:10577000080002287FF607AF032003B0BDE8F083DE
:105780000038024000700040E01147426800474284
:10579000226C02F4407293423FF4FFAE3B6F4B4ADF
:1057A0000121116023F44073002111603B673B6FBE
:1057B000DB077FF5F2AEFEF713FC41F28839804635
:1057C0003B6F98073FF5E9AEFEF70AFCA0EB080037
:1057D0004845F5D9D0E7916821F4F811EDE63C4849
:1057E000216DD0F8942022F000520A43B1F1005FFD
:1057F000C0F894207FF422AF23E7B3F5006F3FF4A5
:1058000020AF012D4BD1334D314E00232B60FEF7DD
:10581000E7FB074633689B004BD421684E0701D550
:10582000236B1BB108071AD5636BC3B9284AA0695B
:10583000D2F8883003F440330343E06943EA80132D
:10584000606A43EA0063C2F88830D2F88C30E06ABC
:1058500023F4F853013843EA0023C2F88C30CA0518
:1058600014D5636DB3F1006F10D11949A269D1F855
:10587000883003F070631343E26943EA8213226ABB
:105880005208013A43EA0243C1F8883001232B60F1
:10589000FEF7A6FB0E4C054623689B000FD50020A3
:1058A0006BE7FEF79DFBA0EB080002287FF6D0AE69
:1058B00062E7FEF795FBC01B0228ABD95CE7FEF759
:1058C0008FFB401B0228E7D956E700BF400E474236
:1058D0000038024070004742204908B58B6803F049
:1058E0000C03082B07D00C2B20D01D4A1D48042B7D
:1058F00018BF104608BD4A684B68496813F4800316
:1059000014BF18481648C1F3881118BF002302F0CD
:105910003F02A1FB00010FF06DFB104B5B68C3F36E
:10592000014301335B00B0FBF3F008BD4A684B68EC
:10593000496813F4800314BF0A480948C1F3881169
:1059400018BF002302F03F02A1FB00010FF052FB41
:10595000024B5B68C3F30273E5E700BF0038024007
:105960000024F40000127A0003682DE9F341DF07F8
:10597000044610D423689E0767D423681A0700F1F1
:10598000B28023685B0700F1D080A269002A40F052
:10599000398100201EE0974B9A6802F00C02042A1D
:1059A00010D09A6802F00C02082A02D15B685D02EE
:1059B00008D4904B9A6802F00C020C2A0DD15A6858
:1059C00050020AD58B4B1B689903D3D56368002B13
:1059D000D0D1012002B0BDE8F0816268B2F5803F0D
:1059E00011D11A6842F480321A60FEF7F9FA814D3B
:1059F00006462B689A03BDD4FEF7F2FA801B642892
:105A0000F7D90320E6E77B4DB2F5A02F2B6807D12D
:105A100043F480232B602B6843F480332B60E4E74E
:105A200023F480332B602B6823F480232B60002A1F
:105A3000DBD1FEF7D5FA06462B689B039AD5FEF715
:105A4000CFFA801B6428F7D9DBE76A4B9A6812F01B
:105A50000C0F10D09A6802F00C02082A02D15B6881
:105A60005F0208D5634A936803F00C030C2B11D135
:105A700053685E020ED45F4B1A68950702D5E26840
:105A8000012AA6D11A68216922F0F80242EAC1026D
:105A90001A6072E7E268584BB2B101221A60FEF751
:105AA0009FFA544D06462B68980707D52B68226944
:105AB00023F0F80343EAC2032B605EE7FEF790FA97
:105AC000801B0228EFD99CE71A60FEF789FA494D3E
:105AD00006462B6899077FF550AFFEF781FA801BC9
